:020000000C945E
:10000200B8010C9400000C9400000C9400000C94B5
:1000120000000C9400000C9400000C9400000C945E
:1000220000000C9400000C9400000C9400000C944E
:1000320000000C9400000C9400000C9400000C943E
:1000420000000C9400050C9400000C9400000C9429
:1000520000000C9400000C9400000C9400000C941E
:1000620000000C9400000C9400000C9400000C940E
:1000720000000C9400000C9400000C9400000C94FE
:1000820000000C9400000C9400000C9400000C94EE
:1000920000000C94000020222A2B2C5B3D5D7C7F0B
:1000A200000003030302020C0008000100060E0E0A
:1000B2000E0E0E0E0E0E303A526567697374727927
:1000C2002E747874253032582000436F6C6F636150
:1000D200207475206465646F2000736F62726520FE
:1000E200656C207363616E657200496E76616C693E
:1000F2006420706F736974696F6E0054686520497B
:1001020044206973206E6F742075736564004944DE
:1001120020616C7265616479207573656400436F58
:100122006D6D756E69636174696F6E206572726F51
:100132007200566572696669636174696F6E2066E2
:1001420061696C757265004964656E74696669639C
:100152006174696F6E206661696C004461746162EA
:100162006173652069732066756C6C00446174610B
:100172006261736520697320656D70747900546FD4
:100182006F206261642066696E6765727072696E63
:100192007400456E726F6C6C6D656E742066616979
:1001A2006C75726500436F6D6D616E64206E6F7465
:1001B20020737570706F727465640044657669634C
:1001C20065206572726F7200496E76616C69642097
:1001D200706172616D657465720046696E67657201
:1001E200206E6F7420707265737365640044696772
:1001F2006974616C20416363657373005265672E95
:100202000054696D650055736572205265676973A4
:10021200746572004164640052656D6F76650042D8
:1002220061636B0050757420796F75722066696E18
:1002320067657200696E2074686520726561646525
:10024200720053656C65637420757365722069640E
:1002520000746F2072656D6F76652066726F6D2017
:100262006C697374002B0053656C656374002D0018
:10027200486F7572004D696E004F4B005265676999
:1002820073747261720049442052656769737472B3
:1002920061646F0020202049442023256920454EB7
:1002A200524F4C4C4544004D656D6F727920467536
:1002B2006C6C0020202020416363657373204465C9
:1002C2006E696564002020202020202325690055C6
:1002D2007365722072656D6F7665640066726F6D0C
:1002E200206C697374210025693A2569005365748D
:1002F2002074696D650073756363657373210025EE
:10030200692F25692F2569207C2025693A25693ABC
:100312002569207C2049443A20302569200A0020A2
:1003220020202020202057656C636F6D65002020FF
:1003320020202569000001002D4E414E00494E4605
:1003420000000100464154002D4E414E00000800BD
:100352000D05B0000E003E05B80001004D05380342
:1003620001005105440303005B0546030000F894B5
:10037200EE27EFBBF1E0F5BFE5BFF8E1A895A4B722
:10038200A77FA4BFF0936000E09360008DE0A2E03D
:10039200BB27ED938A95E9F780E090E2A0E0B1E017
:1003A200ED930197E9F7E0E5F3E0859195910097E8
:1003B20061F0A591B59105901590BF01F0010590EE
:1003C2000D920197E1F7FB01F0CF8BBFE0E0EEBBAE
:1003D200EFEFEDBFE0E2EEBFC0E0D5E00C94BF0668
:1003E2002C978CE0A0E0B0E0E4EAF0E00E94C22C9E
:1003F2001A93E0B3EF63E0BBE2E3F0E0FA93EA932F
:100402000E94902910E01C3090F4E2E0F0E0FA93B0
:10041200EA930E949029E12FF0E0DE011196AE0FDF
:10042200BF1FEC91EA930FD00BD01F5FECCFECE033
:100432005E2E5A9221D018812D9608958E9A089593
:100442008C9A8C980895E881E87011F08B9A01C01B
:100452008B98E881E47011F08A9A01C08A98E88149
:10046200E27011F0899A01C08998E881E17011F077
:10047200889A01C0889847C41A938D98E2E0F0E008
:10048200FA93EA930E949029E981E07F1E2FE12FDF
:10049200F0E00E94862B1E2F1A93D5DFD1DFE9816F
:1004A200EF701E2F1A93CFDFE2E0F0E0FA93EA93A7
:1004B2000E949029C5DF15C41A938D9AE2E0F0E0FC
:1004C200FA93EA930E949029E981E07F1E2FE12F9F
:1004D200F0E00E94862B1E2F1A93B5DFB1DFE9816F
:1004E200EF701E2F1A93AFDFE2E0F0E0FA93EA9387
:1004F2000E949029A5DFF5C31A938D9AE2E0F0E0FD
:10050200FA93EA930E949029E981E07F1E2FE12F5E
:10051200F0E00E94862B1E2F1A9395DF91DFE9816E
:10052200EF701E2F1A938FDFE2E0F0E0FA93EA9366
:100532000E94902985DFD5C31A9310E0E12F1F5F37
:10054200A981BA81F0E0EA0FFB1FE491EA93D4DFBC
:10055200E12FA981BA81F0E0EA0FFB1FE491E030BC
:1005620069F714C01A9310E0E12F1F5FA981BA81C5
:10057200F0E0AE0FBF1FEC91EA93BEDFA981BA8112
:10058200EE27A10FBE1FEC91E03071F71881239680
:100592000895E1E0EA9370DF0895E881F0E0309792
:1005A20019F4E981E05814C0E130A0E0FA0719F427
:1005B200E981E0540DC0E230A0E0FA0719F4E981C4
:1005C200EC5606C0E330A0E0FA0721F4E981EC52D0
:1005D200EA9352DF87C31A93EB81EE0FEE0FEE0F11
:1005E200E05CEA9349DF10E0183050F4A981BA8147
:1005F200EE27A10FBE1FEC91EA935EDF1F5FF4CFDF
:10060200E0E8EA9339DF1881249608958824BB2410
:10061200AA24DD24CC24E0E0E0930405E093050560
:10062200E09306050895E5E54E2E4A920E945F2367
:10063200EAEA7E2E7A920E945F23E1E06E2E6A92AF
:100642000E945F2399249A920E945F23DFDF08951C
:100652001A930A93A42DBB27EE27A70DBE1FEE27E0
:10066200A60DBE1FEE27A90DBE1FEE27A80DBE1FA9
:10067200EE27AB0DBE1FEE27AA0DBE1FEE27AD0D56
:10068200BE1FEE27AC0DBE1FE0910405F0E0EA0F9D
:10069200FB1F8F010093090510930A0508C1C3DFF0
:1006A2008980E981EA930E945F23E0E0EA930E9455
:1006B2005F23E0E0EA930E945F23E0E0EA930E9476
:1006C2005F23C880E881EA930E945F23E0E0EA9317
:1006D2000E945F23BDDFE0910905EA930E945F2338
:1006E200E0910A05EA930E945F230E9458234E2E4E
:1006F2000E9458237E2E0E9458236E2E0E94582359
:100702009E2E0E9458238E2E0E945823BE2E0E9497
:100712005823AE2E0E945823DE2E0E945823E093C7
:1007220005050E945823E09306050E945823E09392
:1007320007050E945823E0930805D4C2E0E0EA933B
:10074200E1E090C0E881EA93E2E1EA93A8DFDBC24C
:10075200E0E0EA93E0E286C0E881EA93E2E2EA932B
:100762009EDFE0910505CFC2E881EA93E0E6EA93D5
:1007720096DFFB2DE0E0DF01E82DF0E0EA0FFB1F42
:10078200C2C2E1E0EA93DEDF04DFE0E0EA93E1E007
:10079200EA9303DFECECF0E0FA93EA93CDDEE0E0DB
:1007A200EA93E2E0EA93F9DEECEDF0E0FA93EA9301
:1007B200C3DEE1E0EA93D8DFE231A0E1FA07C9F350
:1007C200E0E0EA93BFDFE0E0EA93E3E24BC0E1E07E
:1007D200EA93B8DFDEDEE0E0EA93E1E0EA93DDDE11
:1007E200ECECF0E0FA93EA93A7DEE0E0EA93E2E0D1
:1007F200EA93D3DEECEDF0E0FA93EA939DDEE1E0DA
:10080200EA93B2DFE231A0E1FA07C9F3E0E0EA934A
:1008120099DFE0E0EA93E4E225C0E1E0EA9392DFC7
:10082200B8DEE0E0EA93E1E0EA93B7DEECECF0E078
:10083200FA93EA9381DEE0E0EA93E2E0EA93ADDE46
:10084200ECEDF0E0FA93EA9377DEE1E0EA938CDFF5
:10085200E231A0E1FA07C9F3E0E0EA9373DFE0E0F6
:10086200EA93E5E2EA931BDF0895E881EA93E0E484
:10087200EA9315DF48C21A930A93E1E0EA9362DF32
:10088200E1E0EA9371DF8F01E0E0EA935BDFE2E10E
:10089200F0E1E017F10749F0E0E0EA93E1E5EA93DD
:1008A200FEDEE0910505F0E002C0E2E1F0E109912F
:1008B200199108956EDEE0E0EA93E1E0EA936DDEDD
:1008C200E881F981E330A0E1FA0731F4ECEEF0E0DF
:1008D200FA93EA9331DE81C0E430A0E1FA0731F401
:1008E200EDEFF0E0FA93EA9327DE77C0E530A0E17E
:1008F200FA0731F4E0E1F1E0FA93EA931DDE6DC00C
:10090200E630A0E1FA0731F4E0E2F1E0FA93EA938B
:1009120013DE63C0E730A0E1FA0731F4E4E3F1E06B
:10092200FA93EA9309DE59C0E830A0E1FA0731F4FC
:10093200E9E4F1E0FA93EA93FFDD4FC0E930A0E188
:10094200FA0731F4EDE5F1E0FA93EA93F5DD45C0FB
:10095200EA30A0E1FA0731F4EEE6F1E0FA93EA9325
:10096200EBDD3BC0EC30A0E1FA0731F4E0E8F1E066
:10097200FA93EA93E1DD31C0ED30A0E1FA0731F4F8
:10098200E4E9F1E0FA93EA93D7DD27C0EE30A0E183
:10099200FA0731F4E7EAF1E0FA93EA93CDDD1DC0FC
:1009A200EF30A0E1FA0731F4EDEBF1E0FA93EA93CC
:1009B200C3DD13C0E131A0E1FA0731F4EAECF1E062
:1009C200FA93EA93B9DD09C0E231A0E1FA0729F40A
:1009D200ECEDF1E0FA93EA93AFDD84C1FB2DE0E0A8
:1009E200DF01E82DF0E0EA0FFB1FE0930B05F09327
:1009F2000C05FA93EA935EDFE091050508950A92E9
:100A02001A92FA926A937A938A939A93AA93BA93CE
:100A1200EA93FA93EFB7EA930E940810E991EFBFC5
:100A2200F991E991B991A9919991899179916991F4
:100A3200F990199009901895ACDDE3E0EA93E1E0B2
:100A4200EA93ABDDEFEEF1E0FA93EA9375DDE1E0D4
:100A5200EA93E3E0EA93A1DDEEEFF1E0FA93EA93A1
:100A62006BDDE6E0EA93E3E0EA9397DDE0E0EA9308
:100A720043DDE8E0EA93E3E0EA938FDDE3E0F2E0CE
:100A8200FA93EA9359DDEDE0EA93E3E0EA9385DD38
:100A9200E0E0EA9331DDEEE0EA93E3E0EA937DDD24
:100AA200E7EFF1E0F0C075DDE3E0EA93E1E0EA931D
:100AB20074DDE8E0F2E0FA93EA933EDDE1E0EA93E6
:100AC200E3E0EA936ADDE6E1F2E0FA93EA9334DDE9
:100AD200E5E0EA93E3E0EA9360DDE0E0EA930CDD2F
:100AE200E7E0EA93E3E0EA9358DDEAE1F2E0FA9321
:100AF200EA9322DDEEE0EA93E3E0EA934EDDE0E002
:100B0200EA93FADCE0E1B9C044DDE3E0EA93E0E035
:100B1200EA9343DDE6E2F2E0FA93EA930DDDE4E0E4
:100B2200EA93E1E0EA9339DDE6E3F2E0FA93EA934D
:100B320003DDE6E0EA93E3E0EA932FDDE0E0EA9307
:100B4200BBDCEDE0EA93E3E0EA9327DDE0E0EA9341
:100B5200B3DC92C01EDDE3E0EA93E0E0EA931DDD40
:100B6200E4E4F2E0FA93EA93E7DCE1E0EA93EA9361
:100B720014DDE3E5F2E0FA93EA93DEDCE2E0EA93E5
:100B8200E3E0EA930ADDE7E6F2E0FA93EA93D4DCE3
:100B9200E5E0EA93E3E0EA9300DDE0E0EA93ACDC2F
:100BA200E7E0EA93E3E0EA93F8DCE9E6F2E0FA93BD
:100BB200EA93C2DCEEE0EA93E3E0EA93EEDCE0E003
:100BC200EA939ADCE1E1EA93E3E0EA93E6DCE0E728
:100BD200F2E059C0DEDCE2E0EA93E3E0EA93DDDC36
:100BE200E2E7F2E0FA93EA93A7DCE6E0EA93E3E0D5
:100BF200EA93D3DCE0E0EA935FDCE9E0EA93E3E046
:100C0200EA93CBDCE7E7F2E0FA93EA9395DCEDE0D6
:100C1200EA93E3E0EA93C1DCE0E0EA934DDCE0E151
:100C2200EA93E3E0EA93B9DCEBE7F2E02CC0B1DC53
:100C3200E3E0EA93E0E0EA93B0DCE6E2F2E0FA9382
:100C4200EA937ADCE4E0EA93E1E0EA93A6DCE6E305
:100C5200F2E0FA93EA9370DCE6E0EA93E3E0EA93E7
:100C62009CDCE0E0EA9348DCEDE0EA93E3E0EA931F
:100C720094DCE0E0EA9340DCEFE0EA93E3E0EA931D
:100C82008CDCE1E2F2E0FA93EA9356DC08951A93DF
:100C9200E981F0E031971E2F133168F4A12FB0E003
:100CA200A050B0400E94832CE03019F0E12FEF5F9A
:100CB20018C01F5FF1CF14C01A93E981F0E0319799
:100CC2001E2F113068F0A12FB0E0A050B0400E945A
:100CD200832CE03019F0E12FEF5F03C01150F1CF08
:100CE200E0E0188122960895E881EA93BEDD76DE7F
:100CF200E03349F4E881F0E03197E050F040DF0161
:100D0200E0E00E948F2C2196089543DCE0E0EA9314
:100D1200EA9343DCEEE7F2E0FA93EA930DDCE8EEC5
:100D2200F3E0FA93EA930E949029E881EA9314DDB2
:100D320055DEE033D1F425DD51DEE033B1F447DD99
:100D42004DDEE03391F469DD49DEE03371F4E8E829
:100D5200F2E0FA93EA93F0DBE881F0E03197E050B9
:100D6200F040DF01E1E00E948F2C50DCE4EFF1E083
:100D7200FA93EA930E9490290C94700DEF97EB97E7
:100D8200D4502EDBE0E0EA93EA93EA930E94A02893
:100D9200E2E0E093C800E8E1E093C900E6E0E09316
:100DA200CA00E0E0E093CD00E9E1E093CC00E0EEA0
:100DB200E8B9EDEEE4B9E9E0E0938100E7E2E0931F
:100DC2008900E0E1E0938800E2E0E0936F0078942C
:100DD20007DBE0E0EA93EDE0F5E0FA93EA93FBDB70
:100DE200E0E0EA930E94870CE8ECF0E0FA93EA93E1
:100DF2000E94902923DBA2DCE0E0EA93A3DCA8DCDA
:100E0200E0E0E0931E05E1E0E0931F05E0E0E093FF
:100E12001505E0931605E0931705E0911505F0918D
:100E220016053097E1F408DE379B04C0369B02C0FA
:100E3200359901C001C0F8CF379903C0E1E0F0E075
:100E420009C0369903C0E2E0F0E004C0359906C05B
:100E5200E3E0F0E0E0931505F0931605E9C2E13016
:100E6200A0E0FA0719F51FDE379B04C0369B02C0CB
:100E7200359901C001C0F8CF379907C0EBE0F0E027
:100E8200E0931505F093160510C0369907C0ECE003
:100E9200F0E0E0931505F093160507C0359905C0FB
:100EA200E0E0E0931505E0931605C2C2EB30A0E046
:100EB200FA0711F00C94D1076CDBE3E0EA93E0E06F
:100EC200EA936BDBE6E2F2E0FA93EA9335DBE4E0E5
:100ED200EA93E1E0EA9361DBE6E3F2E0FA93EA9374
:100EE2002BDBC9DCE231A0E1FA07D9F3A0910505B9
:100EF200A033A9F509DEE1E0EA93C9DEE0931E051D
:100F0200E03009F1EA9301DF44DBE4E0EA93E0E058
:100F1200EA9343DBE0E2F5E0FA93EA93E6E9F2E0F2
:100F2200FA93EA93E0911E05FF27662777270E942E
:100F32006C2C84E00E9415282896E0E2F5E0FA93F2
:100F4200EA9310DB0BC025DBE4E0EA93E0E0EA93EE
:100F520024DBE9EAF2E0FA93EA93EEDA16C0E0E083
:100F6200E0931505E093160514DBE0E0EA93E1E077
:100F7200EA9313DBE5EBF2E0FA93EA93DDDAE8EECB
:100F8200F3E0FA93EA930E9490293599FECF3599BE
:100F920006C0E1E0F0E0E0931505F093160548C2C3
:100FA200EC30A0E0FA0711F00C949108E0911705DB
:100FB200E03049F560DCE231A0E1FA07D9F3A09113
:100FC2000505A03331F4E1E0E0931705E0931F0536
:100FD2001AC0E0E0E0931505E0931605DADAE0E0E6
:100FE200EA93E1E0EA93D9DAE5EBF2E0FA93EA93E5
:100FF200A3DAE8EEF3E0FA93EA930E949029E1E0A3
:10100200E093170515C2A6DDE0E0EA93E2E0EA9379
:10101200C4DAE0E2F5E0FA93EA93E7ECF2E0FA935D
:10102200EA93E0911F05FF27662777270E946C2C21
:1010320084E00E9415282896E0E2F5E0FA93EA930C
:1010420091DA369B04C0379B02C0359901C001C0BA
:10105200F8CFA0E03799A1E0A03029F4A0E03599BB
:10106200A1E0A03009F00BC0E0E0E0931505E093A9
:101072001605E1E0E0931F05E093170550C0A0E0DC
:101082003799A1E0A03021F4A0911F05A23008F405
:1010920007C0E0911F05EA930FDEE0931F053FC0F2
:1010A200A0E03599A1E0A03021F4A0911F05A43160
:1010B20008F007C0E0911F05EA93E9DDE0931F0500
:1010C2002EC036992CC0E0E0E0931505E09316059A
:1010D200E1E0E0931705E0911F05EA9305DE0E9427
:1010E200CA02E4E0EA93E1E0EA930E94CE02E1ED73
:1010F200F2E0FA93EA930E949D02E5E0EA93E2E0CD
:10110200EA930E94CE02EEEDF2E0FA93EA930E9495
:101112009D02E8EEF3E0FA93EA930E94902988C1D7
:10112200E230A0E0FA0711F00C941E0953DDE8E169
:10113200F5E0FA93EA93E9E1F5E0FA93EA93EAE15A
:10114200F5E0FA93EA930E94C028E8E0EA93E1E02E
:10115200EA930E94CE02E0E2F5E0FA93EA93E9EE26
:10116200F2E0FA93EA93E0911805FF2766277727C2
:101172000E946C2CE0911905FF27662777270E94B1
:101182006C2C88E00E9415282C96E0E2F5E0FA9398
:10119200EA930E94B302359B04C0369B02C0379982
:1011A20001C001C0F8CF37990EC0E0911805EF5F7A
:1011B200E0931805EA93E0911905EA93E0E0EA93D7
:1011C2000E94D42839C0369910C0E0911905EF5F0A
:1011D200E0931905E0911805EA93E0911905EA9365
:1011E200E0E0EA930E94D42827C0359925C0E0E0C8
:1011F200E0931505E09316050E94CA02E6E0EA9321
:10120200E1E0EA930E94CE02EFEEF2E0FA93EA9373
:101212000E949D02E6E0EA93E2E0EA930E94CE0297
:10122200E8EFF2E0FA93EA930E949D02E8EEF3E01F
:10123200FA93EA930E949029FBC0E330A0E0FA07F8
:1012420011F00C94190AF3DC16DBE231A0E1FA0783
:10125200D9F3A0910505A03311F00C94FC09E8E143
:10126200F5E0FA93EA93E9E1F5E0FA93EA93EAE129
:10127200F5E0FA93EA930E94C028EBE1F5E0FA93D5
:10128200EA93ECE1F5E0FA93EA93EDE1F5E0FA9303
:10129200EA930E94F828FE01EE5AFB4FFA93EA9372
:1012A200E1E0F3E0FA93EA93E0911B05FF2766275A
:1012B20077270E946C2CE0911C05FF276627772771
:1012C2000E946C2CE0911D05FF27662777270E945C
:1012D2006C2CE0911805FF27662777270E946C2C5B
:1012E200E0911905FF27662777270E946C2CE09171
:1012F2001A05FF27662777270E946C2CE82DF0E05D
:1013020031960E94AD2B0E946C2C8CE10E94152814
:10131200A096E0E0EA93FE01EF5DFD4FFA93EA93B7
:101322000E94601E3E2FE03081F5FE01FA93EA939F
:10133200EEE3F5E0FA93EA93E3E1EA930E948F1E6B
:101342003E2F303011F5FE01FA93EA93FE01EC5A7A
:10135200FB4FFA93EA93E8E2F0E0FA93EA93EDB7EF
:10136200FEB73197FA93EA931F930F930E94F61FE9
:101372000F911F91FE01FA93EA930E944523E4EF35
:10138200F1E0FA93EA930E949029E0E0EA93E0E028
:10139200F0E0FA93EA930E94601E0E94CA02E0E023
:1013A200EA93E1E0EA930E94CE02E1E2F3E0FA93EB
:1013B200EA930E949D02E0E0EA93E2E0EA930E944F
:1013C200CE02E0E2F5E0FA93EA93E0E3F3E0FA9387
:1013D200EA93E82DF0E031960E94AD2B0E946C2C2E
:1013E20084E00E9415282896E0E2F5E0FA93EA9359
:1013F2000E94B3020EC00E94CA02E0E0EA93E1E05A
:10140200EA930E94CE02E5EBF2E0FA93EA930E949D
:101412009D02E8EEF3E0FA93EA930E94902935994F
:10142200FECF359905C0E0E0E0931505E09316057F
:10143200F4CCFFCF2497E0E0E883E983EA83EFE38B
:10144200EB831A930A93EB85FC85EF3FAFEFFA0724
:1014520059F4EE81FF81FA93EA93EAE3F3E0FA9317
:10146200EA930E945B2912C1EF3FAFE7FA0759F4F2
:10147200EE81FF81FA93EA93EBE3F3E0FA93EA93C6
:101482000E945B2903C1AC85AA2392F4E985FA85FF
:101492006B857C850E949C29E987FA876B877C870C
:1014A200AE81BF811196AE83BF831197EDE2EC93BB
:1014B200A885A73010F0E6E0E8871885E12F1150E3
:1014C200E03079F0AA81BB818C819D81EDECFCEC4E
:1014D2006CEC7DE30E94922AEA83FB836C837D831A
:1014E200EDCFEA81FB816C817D81A985BA858B85EF
:1014F2009C850E94422AE987FA876B877C8710E0E5
:10150200E0E0F0E060E87FE3EA83FB836C837D83C5
:10151200EA81FB816C817D81A985BA858B859C8559
:101522000E94252BE8F0AA81BB818C819D81E0E09D
:10153200F0E060E271E40E94922AEA83FB836C830A
:101542007D831F5F173258F0EE81FF81FA93EA9391
:10155200EFE3F3E0FA93EA930E945B2997C0D8CFB6
:10156200103049F4AE81BF811196AE83BF831197CB
:10157200E0E3EC9349C0E12F1150E03011F40C94F8
:10158200050BAA81BB818C819D81EDECFCEC6CEC9E
:101592007DE30E94922AA0E0B0E080E09FE30E94F7
:1015A200422A0E946C2C0E944429EA83FB836C83AA
:1015B2007D83A985BA858B859C850E94E02A0E943D
:1015C200CF290E2FAE81BF811196AE83BF831197B3
:1015D200E02FE05DEC93E02FF0E0AA81BB818C81EB
:1015E2009D810E94AD2B0E94082A0E94922AA98501
:1015F200BA858B859C850E94762C0E943B2AE987BE
:10160200FA876B877C87B7CFE885E03009F43AC068
:10161200AE81BF811196AE83BF831197EEE2EC9348
:10162200E885E150E887EF5F69F1A985BA858B8586
:101632009C85E0E0F0E060E271E40E94922AE98792
:10164200FA876B877C870E94CF290E2FAE81BF81DC
:101652001196AE83BF831197E02FE05DEC93E02FEC
:10166200F0E0A985BA858B859C850E94AD2B0E94EE
:10167200082A0E94762C0E943B2AE987FA876B8708
:101682007C87CECFAE81BF81E0E0EC9319810881E7
:101692002D9608951A93E2E3E0935305EFEFEEBD22
:1016A200EDB5E7FFFDCFEFEFEEBDEDB5E7FFFDCF07
:1016B2001EB51F3F21F0E0915305E03009F401C04F
:1016C200F2CFE12F19910895289AEFEFEEBDEDB513
:1016D200E7FFFDCF08950E94B62CEAE0E0935205A1
:1016E200EFEFEEBDEDB5E7FFFDCF1EB51F3F21F4D5
:1016F200E0915205E03009F401C0F2CF1E3F21F023
:10170200E0E00E94BD2C72C52E813F81EFEFEEBD5D
:10171200EDB5E7FFFDCF3F932F932F5F3F4FEEB520
:10172200AF91BF91EC93EFEFEEBDEDB5E7FFFDCFCB
:101732003F932F932F5F3F4FEEB5AF91BF91EC9345
:10174200EFEFEEBDEDB5E7FFFDCF3F932F932F5F98
:101752003F4FEEB5AF91BF91EC93EFEFEEBDEDB51C
:10176200E7FFFDCF3F932F932F5F3F4FEEB5AF9132
:10177200BF91EC93EC81FD813497EC83FD8331F6CC
:10178200EFEFEEBDEDB5E7FFFDCFEFEFEEBDEDB54F
:10179200E7FFFDCFE1E00E94BD2C28C50E94B62CD8
:1017A20079DFEF3F21F0E0E00E94BD2CEBC4EC8139
:1017B200EEBDEDB5E7FFFDCFAC81AD3F71F100E0CD
:1017C2002D813E81D9012F5F3F4FEC91EEBDEDB5EA
:1017D200E7FFFDCFD9012F5F3F4FEC91EEBDEDB595
:1017E200E7FFFDCF0150003069F7EFEFEEBDEDB539
:1017F200E7FFFDCFEFEFEEBDEDB5E7FFFDCFEFEF7A
:10180200EEBDEDB5E7FFFDCF1EB5E12FEF71E5307F
:1018120021F0E0E00E94BD2CB5C4E1E00E94BD2CA5
:10182200B1C41A930A93EE81E07899F0EE81EF77D2
:10183200EE83E7E7EA93E0E0F0E060E070E00E9428
:101842006C2CEFDF0E2F023020F0E02F198108817F
:1018520099C4289A28981EDFEF3F21F0EFEF1981F3
:10186200088190C4EE81EEBDEDB5E7FFFDCFED81BD
:10187200EEBDEDB5E7FFFDCFEC81EEBDEDB5E7FFC7
:10188200FDCFEB81EEBDEDB5E7FFFDCFEA81EEBD09
:10189200EDB5E7FFFDCF11E0AE81A03411F415E9FB
:1018A20004C0AE81A83409F417E81EBDEDB5E7FF08
:1018B200FDCFAE81AC3429F4EFEFEEBDEDB5E7FF1D
:1018C200FDCF1FEFEFEFEEBDEDB5E7FFFDCF0EB59C
:1018D20007FF03C01150103009F401C0F3CFE02F0D
:1018E200198108814FC41A9314E0EFEFEEBDEDB5F4
:1018F200E7FFFDCFA981BA811196A983BA83119717
:10190200EEB5EC931150103081F7E9C524970E948F
:10191200B62CE885E03011F0E1E0D6C02498259895
:10192200EAE0E0935205E0915205E030E1F7E09100
:101932005105E27009F0C6C0209A289AE5B1E97F04
:10194200E5B92B9A2398E4B1E760E4B9E1E5ECBD8F
:10195200E0E0EDBD3FEF1AE0EFEFEEBDEDB5E7FFE2
:10196200FDCF11501030C1F7E0E4EA93E0E0F0E07F
:1019720060E070E00E946C2C54DF0E2F3150013079
:1019820011F0303009F401C0E6CF30E0013011F03F
:101992000C94430DE4E6E0935205E8E4EA93EAEAA4
:1019A200F1E060E070E00E946C2C3BDFE130D1F5A9
:1019B200FE013496FA93EA9396DFAE81A13019F4D0
:1019C200AF81AA3A09F02DC0E0915205E03059F0FA
:1019D200E9EEEA93E0E0F0E060E070E40E946C2C53
:1019E20020DFE03009F401C0EFCFE0915205E03092
:1019F20059F0EAE7EA93E0E0F0E060E070E00E948C
:101A02006C2C0FDFE03009F00CC0FE013496FA9323
:101A1200EA9369DFEC81E07411F0ECE001C0E4E0EC
:101A22003E2F30C0E9EEEA93E0E0F0E060E070E0E3
:101A32000E946C2CF6DEE23018F432E009EE02C0AD
:101A420031E001E4E0915205E03051F00A93E0E028
:101A5200F0E060E070E00E946C2CE3DEE03009F41C
:101A620001C0F0CFE0915205E03059F0E0E5EA9391
:101A7200E0E0F2E060E070E00E946C2CD2DEE03048
:101A820009F030E0309354051FDE303051F0E09120
:101A92005105EE7FE0935105E0E5ECBDE1E0EDBDDF
:101AA20011C02898F7DD10DEE0E0ECBDE4B1E07F84
:101AB200E4B9E5B1E07FE5B92098E0915105E16034
:101AC200E0935105E09151050E94BD2C299608959D
:101AD200E881E03011F0E1E002C0E0915105219689
:101AE2000895EF81E03019F4E881E03011F4E4E088
:101AF2007DC3E0915105E17011F0E3E077C3E0911D
:101B02005405E87071F4E981FA816B817C81A0E06F
:101B1200B2E080E090E00E94B22BE983FA836B830B
:101B22007C83A881A130D1F4E1E5EA93EA81FB81CB
:101B32006C817D810E946C2C74DEE03059F4ED8161
:101B4200FE81FA93EA93E0E0F2E0FA93EA93C3DDCE
:101B5200E03009F402C0E0E0E88329C0E2E5EA935C
:101B6200EA81FB816C817D810E946C2C5ADEE0301F
:101B7200F1F4ED81FE81FA93EA93E0E0F2E0FA9368
:101B8200EA93A9DDE03051F0ED81FE81E050FE4F95
:101B9200ED83FE83E881E150E88359F7ECE4EA93B0
:101BA200E0E0F0E060E070E00E946C2C3ADE8CDD58
:101BB200E881E03011F0E1E001C0E0E017C3EF811D
:101BC200E03019F4E881E03011F4E4E00FC3E09171
:101BD2005105E17011F0E3E009C3E0915105E470B1
:101BE20011F0E2E003C3E0915405E87071F4E98179
:101BF200FA816B817C81A0E0B2E080E090E00E94FB
:101C0200B22BE983FA836B837C83A881A130C1F470
:101C1200E8E5EA93EA81FB816C817D810E946C2C6C
:101C220000DEE03049F4ED81FE81FA93EA93EEEFB3
:101C3200EA93B4DDE03009F402C0E0E0E88336C0A4
:101C4200E0915405E67049F0E7EDEA93E981FF2758
:101C5200662777270E946C2CE4DDE9E5EA93EA81A6
:101C6200FB816C817D810E946C2CDBDDE030F1F424
:101C7200ED81FE81FA93EA93ECEFEA938FDDE03097
:101C820051F0ED81FE81E050FE4FED83FE83E8814D
:101C9200E150E88369F7E0E0F0E0FA93EA93EDEFD0
:101CA200EA937CDDE03011F4E1E0E8830DDDE881C8
:101CB200E03011F0E1E001C0E0E098C260970E94DC
:101CC200B42CE98DE03011F0E4E09DC111E0E09127
:101CD2005105E17011F0E3E096C14E895F89E88D0C
:101CE200E03031F42898D6DCEF3F09F410E089C1E6
:101CF200E13011F00C94DB0EE9E4EA93E0E0F0E06D
:101D020060E070E00E946C2C8CDDE03059F4FE0142
:101D12003696FA93EA93E0E1F0E0FA93EA93DBDC99
:101D2200E03009F446C0EE81E295EF70E695E69563
:101D3200E13069F4E0E0FE85AF85B0E0EA0FFB1F19
:101D420031969F01D90188279927EAE02CC0EB85BB
:101D5200EF70AE2FE889E078EE1FE0E0EE1FAE0FE5
:101D6200EF85E370EE0FEA0FEE5F0E2FEE85E29540
:101D7200EF70E695E695AE2FED85F0E00E94812B9F
:101D8200B0E0AE0FBF1FEC85E370F0E00E94812B44
:101D9200FE2FE0E0EA0FFB1F31969F01D901882751
:101DA2009927E02FE9500E94652BDA010E944E2C00
:101DB20010E027C1E23039F4DA01E0E0F2E0ED931D
:101DC200FC9310E01EC1E33011F00C94980FE091E7
:101DD2005405E47099F1EDECEA93E0E0F0E060E0A4
:101DE20070E00E946C2C1DDDE03039F5EFEFEEBDA6
:101DF200EDB5E7FFFDCFFE013696FA93EA93E0E1F7
:101E0200F0E0FA93EA9367DCE030B9F000E30030E7
:101E120039F0EFEFEEBDEDB5E7FFFDCF0150F7CFA3
:101E2200E889E295EF70A0E1B0E080E090E00E94E6
:101E3200652BDA010E944E2C10E078C0E9E4EA93A7
:101E4200E0E0F0E060E070E00E946C2CEADCE03060
:101E520059F4FE013696FA93EA93E0E1F0E0FA9340
:101E6200EA9339DCE03009F461C0E0915405E27094
:101E720051F1E889EF73FF27662777270E94982B95
:101E82007F936F93FF93EF93E989E078FF276627AB
:101E92007727DF01CB01E7E00E94712BAF91BF9161
:101EA2008F919F910E94492BEF5FFF4F6F4F7F4FA2
:101EB200DF01CB01EB89E295EF70E695E695E15003
:101EC2000E94652B2FC0E889EC77E695E695FF27FF
:101ED20066277727EF5FFF4F6F4F7F4F7F936F9399
:101EE200FF93EF93E989E370FF2766277727DF01E6
:101EF200CB01E3E00E94652BDF01CB01E989E07EA3
:101F0200E295EF70E695FF27662777270E94492B17
:101F1200EF5FFF4F6F4F7F4FAF91BF918F919F91B7
:101F22000E94B22BDA010E944E2C10E06AC0EA3005
:101F320031F4E0915405DA01EC9310E062C0EB3029
:101F4200B9F4E9E4EA93E0E0F0E060E070E00E94D6
:101F52006C2C67DCE03049F45A934A93E0E1F0E0FC
:101F6200FA93EA93B8DBE03009F401C010E049C00B
:101F7200EC30B9F4EAE4EA93E0E0F0E060E070E02B
:101F82000E946C2C4EDCE03049F45A934A93E0E113
:101F9200F0E0FA93EA939FDBE03009F401C010E02D
:101FA20030C0ED3081F4EAE7EA93E0E0F0E060E08F
:101FB20070E00E946C2C35DCE03021F45A934A9395
:101FC20092DC10E01EC0EE30D9F4EDECEA93E0E0D2
:101FD200F0E060E070E00E946C2C23DCE03079F4E9
:101FE200EFEFEEBDEDB5E7FFFDCF5A934A93E0E484
:101FF200F0E0FA93EA936FDBE03009F010E001C001
:1020020014E062DBE12F0E94BB2C6A9608951A93BA
:102012000A9310915205103019F011501093520585
:1020220010915305103019F011501093530510916F
:102032005505E3B1E072AE2FE3B1E071EA2BE09314
:102042005505E11781F400915105E07211F0046029
:1020520001C00B7FE0915505E07111F0036001C0F2
:102062000D7F009351050991199108952797A09129
:102072000005B0910105109731F0A0910205B091D1
:102082000305109729F4E0E0F0E061E27AE37AC018
:10209200FE013696FA93EA93FE013796FA93EA9393
:1020A200FE013896FA93EA93E0910005F09101055A
:1020B2000995FE013396FA93EA93FE013496FA9358
:1020C200EA93FE013496FA93EA93E0910205F091C5
:1020D20003050995E881F981EC5BF74066277727CC
:1020E200DF01CB01E9E10E94652B7F936F93FF93A0
:1020F200EF93EA81F0E00E94AD2BDF01CB01E5E135
:102102000E94652BAF91BF918F919F910E94582B96
:10211200DF01CB01EB81F0E00E94AD2B0E94A22BEC
:102122000E94582B7F936F93FF93EF93EE81F0E021
:102132000E94AD2BDF01CB01EBE00E94652BAF913A
:10214200BF918F919F910E94582B7F936F93FF9322
:10215200EF93ED81F0E00E94AD2BDF01CB01E5E0D2
:102162000E94652BAF91BF918F919F910E94582B36
:10217200DF01CB01EC81F0E0F595E7950E94AD2BF4
:102182000E94582B279608950E94B62C088519851F
:102192002E813F81EC81FD813197EC83FD83319665
:1021A20061F01F930F930F5F1F4FD9012F5F3F4FB6
:1021B200EC91AF91BF91EC93EDCF0E94BD2CA3C6E1
:1021C2001A930A930E811F81EA81FB813197EA8378
:1021D200FB83319649F01F930F930F5F1F4FEC81E2
:1021E200AF91BF91EC93F0CF1981088128960895A1
:1021F2000E94B42C0A851B852885398540E050E071
:10220200EE81FF813197EE83FF83319681F0D80111
:102212000F5F1F4F0C901124D9012F5F3F4FAC91DC
:10222200BB27F001EA1BFB0BAF01309709F001C09D
:10223200E7CFFA010E94BB2C2C960895EA81FB811C
:10224200E491E03049F0EA81FB81A491E881F981CF
:10225200B0E0EA17FB0709F406C0EA81FB81319678
:10226200EA83FB83EBCFEA81FB81E491F0E02496E1
:1022720008952497A885B9859E960E94432C0E94B2
:10228200622CEC81FD816E817F810E945D2C0E9417
:10229200AA2C11F40C94D911A885B9851496EC9145
:1022A200E03011F40C94B311E885F985A181AA9369
:1022B200E985FA85F296FA93EA93EB81FC816D81C6
:1022C2007E810E946C2CE1E0EA9379DCE03011F02F
:1022D200E1E019C6A885B9851496E0E0EC93E8859B
:1022E200F985A2A1B3A184A195A10D01A885B98503
:1022F2005A960E94432CD0010E94492B0E945D2CC9
:102302000E94AF2C78F52197A985BA851396EC9196
:10231200E883A881A23028F1A985BA855A960E943D
:10232200432CA981BA818B819C810E94492BE9832C
:10233200FA836B837C83E985FA85A181AA93EA8576
:10234200FB85F296FA93EA93EC81FD816E817F819F
:102352000E946C2CE1E0EA9332DCE881E150E883F0
:10236200D8CF2196EC81FD816E817F810E94A02CC5
:10237200F9F0E885F985A181AA93E985FA85F296B3
:10238200FA93EA93EF81F88569857A850E946C2C2D
:10239200E1E0EA93A6DBE03011F0E1E0B4C5EC81C4
:1023A200FD816E817F81A885B9859E960E944E2C03
:1023B200E0E0A9C51A93E981FA81FA93EA93E0E091
:1023C200F0E060E070E00E946C2C53DF1E2F1030B2
:1023D20011F00C946F12A981BA81AC91A33031F43F
:1023E200A981BA811996EC91E03009F469C0A981FA
:1023F200BA819E96E0E0F0E060E070E00E944E2C30
:10240200E981FA81F296FA93EA93E0E0F0E0FA9336
:10241200EA93E0E0F2E0FA93EA93D2DEE981FA810C
:10242200F296E250FE4FA5E5BAEAA083B183E981B4
:10243200FA81F296A2E5B2E581E691E40E94672C68
:10244200E981FA81F296EC51FE4FA2E7B2E781E40C
:1024520091E60E94672CE981FA81F296E851FE4FDB
:102462000F01A981BA811E960E94432CD0010E94BD
:102472004E2CE981FA81F296E451FE4F0F01A981B7
:10248200BA811A960E94432CD0010E944E2CE981F7
:10249200FA81A181AA93EA81FB81F296FA93EA93E7
:1024A200EC81FD81A289B389848995890E94712C6E
:1024B200E1E0EA9384DBA981BA811996E0E0EC932A
:1024C200E981FA81A181AA93E0E0EA93E0E0F0E0F9
:1024D200FA93EA93F3DBE03009F011E0E12F18817F
:1024E2002396089524970E94B62CA885B9858A85DB
:1024F2009B85A230E0E0BE07E0E08E07E0E09E07A9
:1025020060F0AC85BD855E960E94432CA885B98596
:102512008A859B850E94AF2C28F0E1E0F0E060E024
:1025220070E0CCC0AC85BD8592960E94432CEC83B2
:10253200FD836E837F83AC85BD85EC91F0E0E13055
:10254200A0E0FA0711F00C94FE1228853985F901F2
:10255200F695E7952E0F3F1FEC85FD85FA93EA93DA
:10256200D901E0E0F2E00E94EB2BAE81BF818885C9
:102572009985662777270E94492B0E946C2C79DE69
:10258200E03009F097C0AC85BD85D296F901F170B3
:10259200AE0FBF1F0C9111272F5F3F4FEC85FD85BA
:1025A200FA93EA93D901E0E0F2E00E94EB2BAE81CC
:1025B200BF8188859985662777270E94492B0E94CB
:1025C2006C2C57DEE03009F075C0AC85BD85D29623
:1025D200F901F170AE0FBF1FEC91FE2FE0E00E2B60
:1025E2001F2BE885E17021F0F8010E948F2B02C0B9
:1025F200F801FF706627772761C0E230A0E0FA0792
:1026020051F5EC85FD85FA93EA93AA85BB858C8505
:102612009D85E0E0F1E060E070E00E94FE2BAE817B
:10262200BF81888599850E94492B0E946C2C21DEEE
:10263200E03009F03FC0A885B985E2E00E94D22BC4
:10264200F170AC85BD85D296AE0FBF1F0E943F2CA4
:102652006627772733C0E330A0E0FA0759F5EC8507
:10266200FD85FA93EA93AA85BB858C859D85E0E872
:10267200F0E060E070E00E94FE2BAE81BF818885B1
:1026820099850E94492B0E946C2CF3DDE03091F475
:10269200A885B985E4E00E94D22BF170AC85BD8596
:1026A200D296AE0FBF1F0E94432CEF7FFF7F6F7F3A
:1026B2007F7004C0EFEFFFEF6FEF7FEF0E94BD2C42
:1026C2002E96089524970E94B42CAE85BF858889E2
:1026D2009989A230E0E0BE07E0E08E07E0E09E07C5
:1026E20060F0AA89BB895E960E94432CAE85BF85A5
:1026F200888999890E94AF2C10F052E0F7C0AA890C
:10270200BB8992960E94432CEE83FF836887798768
:10271200AA89BB89EC91F0E0E130A0E0FA0711F060
:102722000C9412140E851F85F801F695E7950E0F8D
:102732001F1FEA89FB89FA93EA93D801E0E0F2E0ED
:102742000E94EB2BA885B9858A859B85662777270A
:102752000E94492B0E946C2C8CDD5E2F503009F0B8
:10276200C0C0AA89BB89D296F801F170EA0FFB1F9B
:102772009F01EE85E17051F0D901EC91EF70AE2F1F
:10278200EA85F0E00E947D2BEA2B01C0EA85D9019F
:10279200EC930F5F1F4FAA89BB891496E1E0EC937B
:1027A200EA89FB89FA93EA93D801E0E0F2E00E9419
:1027B200EB2BA885B9858A859B85662777270E949A
:1027C200492B0E946C2C55DD5E2F503009F089C0D8
:1027D200AA89BB89D296F801F170EA0FFB1F9F010B
:1027E200EE85E17059F0AA85BB858C859D85E4E074
:1027F2000E94712BFF276627772710C0D901EC9121
:10280200E07F1E2EAA85BB858C859D85E8E00E940F
:10281200712BFF2766277727EF70E129D901EC9307
:1028220060C0E230A0E0FA0759F5EA89FB89FA9321
:10283200EA93A889B9898A899B89E0E0F1E060E09E
:1028420070E00E94FE2BA885B9858A859B850E942F
:10285200492B0E946C2C0DDD5E2F503009F041C0D7
:10286200AE85BF85E2E00E94D22BF170AA89BB89B6
:10287200D296EA0FFB1FAA85BB85A083B18331C024
:10288200E330A0E0FA0761F5EA89FB89FA93EA935B
:10289200A889B9898A899B89E0E8F0E060E070E064
:1028A2000E94FE2BA885B9858A859B850E94492BAB
:1028B2000E946C2CDEDC5E2F503099F4AE85BF8511
:1028C200E4E00E94D22BF170AA89BB89D296EA0F6A
:1028D200FB1FAA85BB858C859D850E94672C01C044
:1028E20052E0AA89BB891496E1E0EC93E52F0E949D
:1028F200BB2C6496089524971A93AD81BE818F8173
:102902009885A230E0E0BE07E0E08E07E0E09E0797
:1029120060F0A985BA855E960E94432CAD81BE8186
:102922008F8198850E94AF2C10F012E079C010E0E0
:10293200A985BA855E960E94432CAD81BE818F81A6
:1029420098850E94AF2C10F00C941115E985FA8538
:10295200FA93EA93EF81F88569857A850E946C2C57
:10296200C1DDE983FA836B837C830E94A02C09F486
:1029720057C0A981BA818B819C81A130E0E0BE075A
:10298200E0E08E07E0E09E0711F412E049C0A98161
:10299200BA818B819C81AF3FEFEFBE07EFEF8E07CD
:1029A200EFEF9E0711F411E03BC0E985FA85FA9337
:1029B200EA93EF81F88569857A850E946C2CE0E0C4
:1029C200F0E060E070E00E946C2C7CDE1E2F103084
:1029D20039F5E985FA85A685B78580899189AF3F62
:1029E200EFEFBE07EFEF8E07EFEF9E0781F0A985AD
:1029F200BA851E960E94492CEF5FFF4F6F4F7F4FA3
:102A02000E94532CA985BA851996E1E0EC93E981DD
:102A1200FA816B817C81ED83FE836F83788788CF17
:102A2200E12F18812B9608956097AC89BD895E9637
:102A32000E94432C0E94622CE889F9896A897B8969
:102A42000E94A02CF1F4AC89BD891A960E94432CF5
:102A5200EC83FD836E837F83AC81BD818E819F81F8
:102A62000E94A42C29F00E94582C0E94AF2C40F006
:102A7200E1E0F0E060E070E0EC83FD836E837F8351
:102A820036C0EC89FD89FA93EA93EA89FB896C895D
:102A92007D890E946C2C26DDEC87FD876E877F87FF
:102AA200AC85BD858E859F85A230E0E0BE07E0E063
:102AB2008E07E0E09E0728F4E1E0F0E060E070E0DD
:102AC200E8C00E94582CAC85BD858E859F850E94EA
:102AD200AF2C28F4EC85FD856E857F85DAC0E88908
:102AE200F9896A897B89EC83FD836E837F83EC811C
:102AF200FD816E817F81E887F9876A877B87E88518
:102B0200F9856A857B85EF5FFF4F6F4F7F4FE887BF
:102B1200F9876A877B870E94582CA885B9858A85A0
:102B22009B850E94AF2CC0F0E2E0F0E060E070E034
:102B3200E887F9876A877B87EC81FD816E817F81D7
:102B4200A885B9858A859B850E94AA2C28F4E0E095
:102B5200F0E060E070E09DC0EC89FD89FA93EA93B1
:102B6200EA85FB856C857D850E946C2CBBDCEC873D
:102B7200FD876E877F870E94A02C51F1AC85BD85B1
:102B82008E859F85AF3FEFEFBE07EFEF8E07EFEF2A
:102B92009E0741F0A130E0E0BE07E0E08E07E0E0F2
:102BA2009E0729F4EC85FD856E857F8572C0EC81D8
:102BB200FD816E817F81A885B9858A859B850E946A
:102BC200AA2C29F4E0E0F0E060E070E062C097CF68
:102BD200EC89FD89FA93EA93EA85FB856C857D850C
:102BE2000E946C2CEFEFFFEF6FEF7FE00E946C2CE6
:102BF20069DDE03029F0EFEFFFEF6FEF7FEF49C0C3
:102C0200E889F9896A897B890E94A02CC1F0EC8944
:102C1200FD89FA93EA93EA89FB896C897D890E948E
:102C22006C2CEE85FF85688979890E946C2C4ADDBF
:102C3200E03029F0EFEFFFEF6FEF7FEF2AC0E8857A
:102C4200F9856A857B85AC89BD891A960E944E2CCE
:102C5200EC89FD89A685B78580899189AF3FEFEF21
:102C6200BE07EFEF8E07EFEF9E0779F0AC89BD89C3
:102C72001E960E94492C3197604070400E94532C4E
:102C8200AC89BD891996E1E0EC93E885F9856A85FE
:102C92007B85669608950E94582CE250F040604071
:102CA20070400E94622CEC81FD81A68DB78D80A1BF
:102CB20091A1E2E0F0E060E070E00E94762C0E94D8
:102CC2004E2B0E945D2C0E94AF2C28F0E0E0F0E039
:102CD20060E070E05BC5AC81BD811296EC91F0E0E2
:102CE2000E945D2C0E94AD2B0E94B22B7F936F93AA
:102CF200FF93EF93AC81BD819A960E94432CAF91D2
:102D0200BF918F919F910E94492B40C524971A939E
:102D12000A93EE81FF81A885B9851496ED93FC9301
:102D2200A885B98516960E94432CEA83FB836C839F
:102D32007D83AA81BB818C819D81A130E0E0BE07A9
:102D4200E0E08E07E0E09E0779F0A885B9850E9451
:102D52003F2C7E96DF010E94432CAA81BB818C818D
:102D62009D810E94AF2C10F0E2E0CBC0EA81FB8192
:102D72006C817D810E94A02C39F4A885B9850E94BE
:102D82003F2CA081A33009F00CC0A885B9850E9410
:102D92003F2CB696DF010E94432CEA83FB836C83AF
:102DA2007D83EA81FB816C817D810E94A02CE9F404
:102DB200A885B9851A960E944E2CA885B9850E94CD
:102DC2003F2C3796DF010E943F2CAE81BF81AE17A8
:102DD200BF0710F0E2E095C0A885B9850E943F2C9C
:102DE200B696DF010E94432C68C0A885B9850E946F
:102DF2003F2CE281A0E1EA9F8001AE81BF81A01752
:102E0200B10710F40C944817A885B9850E943F2C8D
:102E1200FA93EA93EC81FD816E817F810E946C2C92
:102E220061DBEA83FB836C837D83AA81BB818C8116
:102E32009D81AF3FEFEFBE07EFEF8E07EFEF9E07EB
:102E420011F4E1E05EC0AA81BB818C819D81A23038
:102E5200E0E0BE07E0E08E07E0E09E0778F0A8859C
:102E6200B9850E943F2C7E96DF010E94432CAA81E5
:102E7200BB818C819D810E94AF2C10F0E2E041C0A9
:102E8200EE81FF81E01BF10BEE83FF83B6CFEA8177
:102E9200FB816C817D81A885B9851A960E944E2C92
:102EA200A885B9850E943F2CFA93EA93EC81FD81B3
:102EB2006E817F810E946C2CEEDEDF01CB01EE8100
:102EC200FF810E948F2B662777270E94492BA885B6
:102ED200B9851E960E944E2CA885B9850E943F2C6A
:102EE200F296DF01EE81FF81EF70F070EE0F0E942B
:102EF2007D2BEA0FFB1FA885B9855296ED93FC93B3
:102F0200E0E0198108812A96089524971A930A937A
:102F1200AF81B88514960E943F2C31968F01002E06
:102F2200012A41F0AF81B8851E960E94432C0E946F
:102F3200A02C11F4E4E071C1F801EF7011F00C94CF
:102F4200F418AF81B8851E960E94492CEF5FFF4F9F
:102F52006F4F7F4F0E94532CAF81B8851A960E9403
:102F6200432C0E94A02C71F4AF81B8850E943F2CA3
:102F72003796DF010E943F2C0E171F0710F0E4E086
:102F82004CC131C1F8010E948F2B0F01AF81B8856E
:102F92000E943F2CE281F0E03197E021F12130974D
:102FA20011F00C94F4180E943F2CFA93EA93E985ED
:102FB200FA85A285B385848595850E94712C92DA63
:102FC200EA83FB836C837D83AA81BB818C819D8193
:102FD200A230E0E0BE07E0E08E07E0E09E0710F4DA
:102FE200E2E01BC1AA81BB818C819D81AF3FEFEFE3
:102FF200BE07EFEF8E07EFEF9E0711F4E1E00DC180
:10300200AF81B8850E943F2C7E96DF010E94432C3F
:10301200AA81BB818C819D810E94AF2C10F40C94FB
:10302200D9182197EF81E03019F4E4E02196F5C038
:10303200A885B9850E943F2CFA93EA93EA85FB851D
:10304200A285B385848595850E94712CEDDCEB8386
:10305200FC836D837E830E94A02C19F4E7E0219605
:10306200DCC0AB81BC818D819E81A130E0E0BE07D6
:10307200E0E08E07E0E09E0719F4E2E02196CDC081
:10308200AB81BC818D819E81AF3FEFEFBE07EFEF39
:103092008E07EFEF9E0719F4E1E02196BEC0A885E6
:1030A200B9850E943F2CFA93EA93E0E0F0E060E0F9
:1030B20070E00E946C2CDDD8E03019F0E1E021963E
:1030C200ACC0A885B9850E943F2CF296FA93EA9388
:1030D200E0E0F0E0FA93EA93E0E0F2E0FA93EA93B8
:1030E2006FD8A885B9850E943F2CDF01BE96FF9359
:1030F200EF93FD01FA93EA93ED81FE816F8178856A
:103102000E946C2CC8DDAF91BF910E944E2CE0E072
:10311200E883A885B9850E943F2CE281A881AE1779
:1031220070F5A885B9850E943F2C3496A1E0A08352
:10313200A885B9850E943F2CFA93EA93E0E0F0E07B
:1031420060E070E00E946C2C94D8E03019F0E1E06D
:10315200219663C0A885B9850E943F2CBE96DF01E7
:103162000E94492CEF5FFF4F6F4F7F4F0E94532CFD
:10317200319760407040E881EF5FE883CACFA8854D
:10318200B9850E943F2CBE96FF93EF93DF010E9408
:10319200432CDF01CB01E881F0E00E94AD2B0E94BD
:1031A200762C0E944E2BAF91BF910E944E2C2196FD
:1031B200EA81FB816C817D81AF81B8851A960E947C
:1031C2004E2CAF81B8850E943F2CFA93EA93EC8192
:1031D200FD816E817F810E946C2C5DDDAF81B8859F
:1031E2001E960E944E2CF801AF81B8851496ED937D
:1031F200FC93AF81B8850E943F2CF296DF01F80163
:10320200EF70F070EE0F0E947D2BEA0FFB1FAF8173
:10321200B8855296ED93FC93E0E0198108812996D6
:1032220008950E94B62CEC81FD81FA93EA93E0E0C6
:10323200F0E0FA93EA936ADD1E2F103021F0E12FBD
:103242000E94BD2CA3C2AC81BD810E943F2CFA9387
:10325200EA93EE81FF81A685B785808991890E94D4
:10326200712C0E943A111E2F103059F5AC81BD818C
:1032720052962D913C91D9010C91003011F414E039
:1032820020C0F901E385E87081F43A932A93EE8134
:10329200FF81A489B589BA93AA93EBE0F0E0FA938F
:1032A200EA930E94F910309709F001C00AC0EC813C
:1032B200FD81FA93EA93E0E0EA9327DE1E2F1030B5
:1032C20011F2E12F0E94BD2C61C20E94B62CEC814A
:1032D200FD81FA93EA93E0E0F0E0FA93EA9316DDD7
:1032E2001E2F103039F5AC81BD810E943F2CFA931C
:1032F200EA93EE81FF81A685B785808991890E9434
:10330200712C0E943A111E2F1030A1F4EC81FD8124
:10331200A289B3890C91053E11F0003009F40AC06C
:10332200EC81FD81FA93EA93E1E0EA93EEDD1E2F50
:103332001030C9F2103011F00C94E219AC81BD8149
:103342000E943F2CFA93EA93EE81FF81A685B7850E
:10335200808991890E94712C0E943A111E2F10308F
:1033620081F5AC81BD8152962D913C913A932A937D
:10337200E0E0F0E0FA93EA93E0E2F0E0FA93EA9315
:103382000E94E1103A932A93EE81FF81A489B589C4
:10339200BA93AA93EBE0F0E0FA93EA930E94C51085
:1033A200AC81BD8154960E943F2CE385E871D9011E
:1033B2001C96EC93AC81BD810E943F2C3496A1E017
:1033C200A083E12F0E94BD2CE1C128970E94B42C5A
:1033D200A889B98954964D915C915A934A93E0E237
:1033E200F0E0FA93EA93EBE0F0E0FA93EA930E94BA
:1033F200E110E0E01E2FF0E0E887F987EA87FB871B
:10340200E8E0F0E0EC87FD87AE85BF850E943F2CA7
:10341200EE83FF83EA85FB85AE81BF81AE0FBF1FBE
:10342200AC91AE32C1F5EA85FB853196EA87FB871E
:103432003197AE81BF81AE0FBF1F0C910E3221F4C6
:10344200AA85BB8513970CF00AC0E885F9853196E9
:10345200E887F9873197E40FF51F0083E4CF0F3235
:1034620021F00C3511F0003208F402C0E6E09FC0F2
:10347200EA85FB85AE81BF81EA0FFB1FAE85BF8562
:10348200ED93FC93003210F4E4E201C0E0E2DA01D1
:103492001B96EC938BC0EA85FB853196EA87FB8706
:1034A2003197AE81BF81AE0FBF1F0C91003220F069
:1034B2000F3211F00C3509F44AC00E3239F0EC85A6
:1034C200FD85A885B985AE17BF079CF0AC85BD8583
:1034D200189711F40E3211F0E6E069C0E8E0F0E06E
:1034E200E887F987EBE0F0E0EC87FD87110F110F19
:1034F2002DC0003818F01360E6E059C0E8E9F0E0AA
:10350200FA93EA93E02FF0E0FA93EA930E941F11F4
:10351200309711F0E6E04BC0013410F00B3508F0A3
:1035220002C012600AC0013610F00B3708F005C065
:103532001160E02FF0E0B0970E2FE885F985319603
:10354200E887F9873197E40FF51F0083A4CFEA8556
:10355200FB85AE81BF81EA0FFB1FAE85BF85ED9370
:10356200FC93003210F4E4E001C0E0E00E2FE885A5
:10357200F985309711F4E6E01AC0DA01AC91A53E64
:1035820019F4DA01E5E0EC93AC85BD85189711F4E6
:10359200110F110FE12FE370E13009F40061E12F07
:1035A200EC70E43009F40860FA010387E0E00E945D
:1035B200BB2C629608950E94B62CAC81BD81AC9161
:1035C200AF3229F0AC81BD81AC91AC3579F4EC819C
:1035D200FD813196EC83FD83AE81BF811696E0E0DA
:1035E200F0E060E070E00E944E2C0DC0AE81BF8121
:1035F2000E943F2C7696DF010E94432CAE81BF8150
:1036020016960E944E2CAC81BD81AC91BB2790973F
:1036120090F4EE81FF81FA93EA93E0E0F0E0FA930E
:10362200EA9374DB1E2FAE81BF815296E0E0F0E098
:10363200ED93FC934FC0EE81FF81FA93EA93FE0172
:103642003696FA93EA93C1DE1E2F103009F042C07B
:10365200EE81FF81FA93EA93E4DD1E2FAE81BF81F2
:1036620054960E943F2CE385E4700E2F103039F0FF
:10367200143011F4003009F001C015E02BC0003005
:1036820049F5AE81BF8152962D913C91F901E385B6
:10369200E07111F415E01EC0D90154960E943F2C2E
:1036A200662777270E94A22B7F936F93FF93EF9356
:1036B200D9015A960E943F2CAF91BF918F919F9151
:1036C200662777270E94582BAE81BF8116960E94EB
:1036D2004E2CB1CFE12F0E94BD2C28960895EC818B
:1036E200FD81A181AA93ED81FE81F296FA93EA937C
:1036F200EB81FC816D817E810E946C2CE1E0EA937A
:103702000E94720DE03011F0E3E040C0EC81FD81D7
:10371200F296E250FE4FDF010E943F2CE535AAEA05
:10372200FA0711F0E2E032C0EC81FD81E859FF4F67
:10373200FA93EA93EBE5F5E0FA93EA93E3E0F0E03B
:10374200FA93EA930E94F910309711F4E0E01EC058
:10375200EC81FD81F296EE5AFF4FFA93EA93EBE584
:10376200F5E0FA93EA93E3E0F0E0FA93EA930E9439
:10377200F910309739F4EC81FD81E65AFF4FE08170
:10378200E07809F002C0E0E001C0E1E02696089589
:1037920065970E94B42CAE8DBF8D0E943F2CE887A6
:1037A200F987A885B985EC91F0E0F097AF014A302E
:1037B200E0E05E0720F41196AC91AA3309F00AC04A
:1037C200E885F9853296E887F987AE8DBF8DED934E
:1037D200FC9303C040915A0555274130E0E05E0753
:1037E20010F0EBE047C2FA01A6E5B5E0EE0FFF1FCD
:1037F200AE0FBF1F0E943F2CEE83FF83AC8DBD8DA9
:10380200ED93FC93309711F4ECE034C2AE81BF81AA
:10381200EC91E030A1F0EE81FF81A181AA930E9498
:10382200690DEA8FE17059F4EB8DE03019F0EA8D01
:10383200E47009F402C0EAE01DC2E0E01BC2AE81FE
:10384200BF81E0E0EC93E42FAE81BF811196EC934F
:10385200EE81FF81A181AA930E94870CEA8FE17019
:1038620011F0E3E007C2EB8DE03019F0EA8DE4706D
:1038720009F402C0EAE0FEC1EE81FF81FA93EA9305
:10388200E0E0F0E060E070E0E88FF98F6A8F7B8F14
:103892000E946C2C24DF0E2F0130F1F4EE81FF81A7
:1038A200F296E254FE4F9F01F901E481E030A1F06B
:1038B200D90118960E94432CEE8BFF8B688F798F6B
:1038C200EE81FF81FA93EA93E88DF98D6A8D7B8D03
:1038D2000E946C2C04DF0E2F033011F4E1E0CAC108
:1038E200003049F4AE81BF81DD960E943F2CE0306A
:1038F200A2E0FA0711F0EDE0BDC1AE81BF81A85B85
:10390200BF4F0E943F2C66277727EA8BFB8B6C8B7D
:103912007D8B0E94A02C51F4AE81BF81AA5ABF4F69
:103922000E94432CEA8BFB8B6C8B7D8BEA89FB8993
:103932006C897D89AE81BF815A960E944E2CEE81A0
:10394200FF81EE5BFF4FE081AE81BF811396EC9366
:10395200AE81BF811396EC91F0E0AA89BB898C8974
:103962009D890E94AD2B0E94B22BEA8BFB8B6C8B44
:103972007D8BAE81BF81A05CBF4F0E943F2CAE8980
:10398200BF89888D998D662777270E94492BAE8142
:10399200BF8192960E944E2CEE81FF81E7ADAE81EF
:1039A200BF811296EC93AE81BF81AD5BBF4F0E9487
:1039B2003F2CAE81BF811796ED93FC93AE81BF8100
:1039C200AB5BBF4F0E943F2C66277727EE87FF87AE
:1039D200688B798B0E94A02C51F4AE81BF81AE5AC4
:1039E200BF4F0E94432CEE87FF87688B798BAE8195
:1039F200BF81A05CBF4F0E943F2CAE85BF858889E6
:103A02009989662777270E94762C0E944E2BAA89D5
:103A1200BB898C899D890E944E2B7F936F93FF9364
:103A2200EF93EE81FF81A781B085FD010E948F2B6C
:103A3200AF91BF918F919F91662777270E94762C35
:103A42000E944E2B7F936F93FF93EF93AE81BF81C2
:103A52001296EC91F0E0AF91BF918F919F910E94ED
:103A6200AD2B0E94FE2BEE5FFF4F6F4F7F4FEA8719
:103A7200FB876C877D87AE81BF815E960E944E2C4C
:103A820001E0AA85BB858C859D85A73FEFE0BE0737
:103A9200E0E08E07E0E09E0708F002E0AA85BB8521
:103AA2008C859D85A73FEFEFBE07E0E08E07E0E043
:103AB2009E0708F003E0033039F4AE81BF81A25AB9
:103AC200BF4F0E94432C0CC0EE81FF81A2A1B3A183
:103AD20084A195A1EA89FB896C897D890E94492B81
:103AE200AE81BF8196960E944E2CEE81FF81A2A1EB
:103AF200B3A184A195A1EA89FB896C897D890E9481
:103B0200492B7F936F93FF93EF93EE81FF81A78100
:103B1200B085FD010E948F2BAF91BF918F919F9134
:103B2200662777270E94492BAE81BF819A960E9411
:103B32004E2CAE81BF811E96EFEFFFEF6FEF7FEF4E
:103B42000E944E2CAE81BF811496E0E0EC930330CC
:103B520011F00C941E1EAE81BF811996EC93AE81BA
:103B6200BF81AE59BF4F0E943F2CAE89BF89888D5D
:103B7200998D662777270E94492BAE81BF81529685
:103B82000E944E2CEE81FF81A181AA93EF81F885DC
:103B9200F296FA93EA93E985FA85A289B389848930
:103BA20095890E94712CE1E0EA930E94720DE03047
:103BB20049F5EE81FF81F296E250FE4FDF010E944D
:103BC2003F2CE535AAEAFA07E9F4AE81BF81D29625
:103BD2000E94432CE235A2E5FA07A1E66A07A1E4B6
:103BE2007A0781F4EE81FF81F296EC51FE4FDF01FC
:103BF2000E94432CE237A2E7FA07A1E46A07A1E692
:103C02007A0709F01AC0EE81FF81F296E451FE4F65
:103C1200DF010E94432CAE81BF811A960E944E2C76
:103C2200EE81FF81F296E851FE4FDF010E94432CA4
:103C3200AE81BF811E960E944E2CAE81BF810C9335
:103C42009E96E0E0F0E060E070E00E944E2CAE81D3
:103C5200BF8156960E944E2CA8E5B5E0ED91FD91EC
:103C62003196FE93EE93AE81BF811596ED93FC9350
:103C720010E0E12F0E94BB2CA0960895EA81FB81FF
:103C8200309771F0AA81BB81EC91E03049F0EA8172
:103C9200FB81A581B681E881F981EA17FB0711F062
:103CA200E9E00BC0EA81FB81A181AA930E94690D20
:103CB200E17011F0E3E001C0E0E0249608951A9368
:103CC2000A93AC81A13018F0EBE00C94A223EC81B2
:103CD200A6E5B5E0F0E0EE0FFF1FAE0FBF1F0D919E
:103CE2001C91002E012A19F0D801E0E0EC93EA8140
:103CF200FB81309721F0AA81BB81E0E0EC93EC815B
:103D0200A6E5B5E0F0E0EE0FFF1FEA0FFB1FAA8168
:103D1200BB81A083B183E0E00C94A223A2970E940E
:103D2200B62CA9A5BAA5E0E0F0E0ED93FC93EEA1D4
:103D3200EF71EEA3FE01B796FA93EA93FE01729633
:103D4200FA93EA93EAA5EE71EA9322DD1E2F103070
:103D520011F0E12F46C1FE013496ECA3FDA3FE0152
:103D62007096FA93EA93E9A5FAA5FA93EA9323DC0B
:103D72001E2FEEA1EC7111F40C94751F28971030D0
:103D820099F0143031F4FE017896FA93EA939DDAB1
:103D92001E2F103019F0E12F289623C1EEA5E860FE
:103DA200EEA72AA53BA585C0EEA5E47019F0E8E0D0
:103DB200289617C12AA53BA5022E032A21F0F90154
:103DC200E385E17119F0E7E028960BC1EEA5E870F2
:103DD20011F40C945A1FD90154960E943F2C662765
:103DE20077270E94A22B7F936F93FF93EF93D901C2
:103DF2005A960E943F2CAF91BF918F919F91662757
:103E020077270E94582B0E94622CF9017496A0E039
:103E1200B0E0A083B183F9017A96A083B183F9015E
:103E22007C96A0E0B0E080E090E00E94672CA88D34
:103E3200B98D1496E1E0EC93A88DB98D9E960E94FF
:103E4200432CEC83FD836E837F830E94582C0E9457
:103E5200A02CE9F0E88DF98DFA93EA93EA81FB81CF
:103E62006C817D810E946C2C0E947C141E2F10306C
:103E720019F0E12F2896B5C00E94582CE150F0406D
:103E820060407040A88DB98D1A960E944E2CE88D24
:103E9200F98DFA93EA93EE81FF81688579850E9414
:103EA2006C2C0E943A111E2F103019F0E12F289627
:103EB20098C0EEA5E870B1F0F9013B96A0E0A083AE
:103EC2000E943710EC83FD836E837F83D9011E9697
:103ED2000E944E2CA88DB98D1496E1E0EC93EEA5CC
:103EE200E062EEA7289619C0103011F0E12F79C0D8
:103EF2002AA13BA1022E032A21F0F901E385E071F8
:103F020011F0E4E06EC0EEA1E27021F0F901E38568
:103F1200E17009F402C0E7E064C0A889B9899E96FD
:103F22000E94432CA9A5BAA55A960E944E2CEAA13A
:103F3200FBA1A9A5BAA55E96ED93FC93EEA1A9A556
:103F4200BAA51496EC93D90154960E943F2C662789
:103F520077270E94A22B7F936F93FF93EF93D90150
:103F62005A960E943F2CAF91BF918F919F916627E5
:103F720077270E94582BA9A5BAA51E960E944E2CFF
:103F8200D9015C960E94432CA9A5BAA51A960E9453
:103F92004E2CA9A5BAA51696E0E0F0E060E070E02C
:103FA2000E944E2CA9A5BAA51596EFEFEC93A9A5F0
:103FB200BAA55696E0E0F0E060E070E00E944E2C78
:103FC200E889F989A9A5BAA5ED93FC93A889B989CD
:103FD20015960E943F2CA9A5BAA51296ED93FC93C3
:103FE200E0E00E94BD2CAB9608952A970E94B42C63
:103FF200EC89FD89EE83FF83A889B989E0E0F0E0CE
:10400200ED93FC93AE89BF890E943F2CFA93EA9309
:10401200E88DF98DA281B381BA93AA932FDE1E2F68
:10402200103011F0E12F88C2EE89FF89A481A078B7
:1040320011F0E2E081C2EE89FF89A481A27011F43D
:10404200E7E07AC2EE89FF89A285B38584859585EA
:10405200EA89FB89662777270E94492B7F936F9312
:10406200FF93EF93AE89BF891A960E94432CAF91BA
:10407200BF918F919F910E94AF2C18F4E0E0EA8BE0
:10408200EB8BEA89FB89309711F40C947C22EE8940
:10409200FF89A681B78180859185FD01BC01F17000
:1040A200309711F00C941722EE89FF890580AE89B2
:1040B200BF890E943F2CE2810E1610F40C94DD2081
:1040C20016960E94432C0E94A02C21F5AE89BF892E
:1040D2001E960E94432CEC87FD876E877F870E9485
:1040E200A02CB9F4AE89BF890E943F2CFA93EA93BF
:1040F200E0E0F0E060E070E00E946C2C0E94151598
:10410200EC87FD876E877F87AE89BF891E960E94E6
:104112004E2C14C0AE89BF890E943F2CFA93EA93B9
:10412200E88DF98DA289B389848995890E94712CC1
:104132000E941515EC87FD876E877F87EC85FD85CC
:104142006E857F850E94A02C09F4D5C1AC85BD8502
:104152008E859F85A130E0E0BE07E0E08E07E0E0BB
:104162009E0741F4AE89BF891496EC91E068EC9306
:10417200E2E0E2C1AC85BD858E859F85AF3FEFEF62
:10418200BE07EFEF8E07EFEF9E0741F4AE89BF89BE
:104192001496EC91E068EC93E1E0CEC1EC85FD85EC
:1041A2006E857F85AE89BF8952960E944E2CAE895C
:1041B200BF891596E0E0EC93EE89FF89A481A07493
:1041C20039F1AE89BF890E943F2CE181EA93EF89E0
:1041D200F88DB096FA93EA93E98DFA8DA689B7899C
:1041E200808D918D0E94712CE1E0EA930E94E00D96
:1041F200E03041F0AE89BF891496EC91E068EC930F
:10420200E1E09AC1AE89BF891496EC91EF7BEC9301
:10421200AE89BF890E943F2CFA93EA93E88DF98D0B
:10422200A289B389848995890E94712C0E944C16B7
:10423200E887F9876A877B870E94A02C41F4AE89C0
:10424200BF891496EC91E068EC93E2E075C1AE8907
:10425200BF891596EC91F0E0A885B9858A859B8582
:104262000E94AD2B0E94492BE887F9876A877B87DA
:10427200AA89BB89E0E0F2E00E94EB2BAF01042E99
:10428200052A11F40C94CB21AE89BF891596EC91C5
:10429200F0E0E40FF51F0F01AE89BF890E943F2CA9
:1042A200E281D001F0E0EA17FB0768F4AE89BF892A
:1042B2000E943F2C028011241596EC91F0E0D0016F
:1042C200AE1BBF0BAD01AE89BF890E943F2CE181BD
:1042D200EA93EF81F885FA93EA93EB85FC856D8585
:1042E2007E850E946C2C4A930E94E00DE03041F0E2
:1042F200AE89BF891496EC91E068EC93E1E01CC1B1
:10430200EE89FF89A689B789808D918DE885F98527
:104312006A857B850E94532BFA01662777270E94C4
:10432200AF2C58F5EE89FF89B096FA93EA93E88D9F
:10433200F98DA689B789808D918DEA85FB856C857B
:104342007D850E94532BE0E0F2E060E070E00E9485
:10435200B22BA885B98588279927EA0FFB1FFA9304
:10436200EA93E0E0F2E0FA93EA930E94C510AE8984
:10437200BF891496EC91EF7BEC93AE89BF891596B9
:10438200EC91E40FEC93FA01EE0FFF1FFE2FE0E039
:104392009F018AC0EE89FF89A689B789808D918D98
:1043A200E885F9856A857B850E94AA2C81F1EE89D0
:1043B200FF89A681B781808591850D01AE89BF896C
:1043C2001A960E94432CD0010E94AF2CB8F4AE89F9
:1043D200BF890E943F2CE181EA93EF89F88DB09664
:1043E200FA93EA93EB85FC856D857E850E946C2CA1
:1043F200E1E0EA930E94720DE03009F408C0AE8950
:10440200BF891496EC91E068EC93E1E095C0E885F1
:10441200F9856A857B85AE89BF8956960E944E2CA6
:10442200AE89BF891596EC91EF5FEC93EE89FF8917
:10443200A681B78180859185FD01BC01EF7FF17076
:1044420060707070A0E0B2E080E090E00E94762C94
:104452000E944E2B9F01EA89FB89E217F30710F4B1
:104462002A893B89EE89FF89B0960F01EE89FF897F
:10447200A681B78180859185FD01BC01EF7FF17036
:1044820060707070E00DF11DFA93EA93E885F9858A
:10449200FA93EA933A932A930E94C510AE89BF8990
:1044A2001496EC91E064EC93F901AE81BF81EA0FBE
:1044B200FB1FEE83FF83EE89FF8936960F01DF0132
:1044C2000E94432CDF01CB01F901662777270E9466
:1044D200492BD0010E944E2CA889B989ED91FD91FA
:1044E200E20FF31FFE93EE93EA89FB89E21BF30BC3
:1044F200EA8BFB8BC6CDEE89FF89A681B7818085C9
:1045020091850D01AE89BF891A960E94432CD00174
:104512000E94AA2C50F4AE89BF8916960E94432CA1
:10452200AE89BF891A960E944E2CAE89BF89149615
:10453200EC91E062EC93E0E00E94BB2C6896089557
:1045420024970E94B62CA885B9850E943F2CFA9325
:10455200EA93EA85FB85A281B381BA93AA938EDBA3
:104562001E2F103011F00C944023E885F985A481A8
:10457200A07211F40C944023A481A07409F1A885BF
:10458200B9850E943F2CE181EA93E985FA85B096CC
:10459200FA93EA93EB85FC85A689B789808D918D84
:1045A2000E94712CE1E0EA930E94E00DE03011F0EC
:1045B200E1E066C0A885B9851496EC91EF7BEC9397
:1045C200A885B9850E943F2CFA93EA93EA85FB8578
:1045D200A28DB38D848D958D0E94712C0E943A110B
:1045E2001E2F103011F00C944023A885B9855E96D9
:1045F2002D913C91D9011B96EC91E062EC93A88538
:10460200B9851A960E94432CD9015C960E944E2CC1
:10461200A885B9851E960E943F2CD9015A96ED9322
:10462200FC93E885F985A685B78580899189FD0186
:10463200BC010E949D2BD9015496ED93FC930E94DC
:104642003710EC83FD836E837F83D90156960E94D7
:104652004E2CA885B9851496EC91EF7DEC93A88534
:10466200B9850E943F2C3496A1E0A083A885B98524
:104672000E943F2CFA93EA930E94DB111E2FE12F36
:104682000E94BD2C2A9608951A93E981FA81FA9321
:10469200EA9356DF1E2F103031F4A981BA81E0E08F
:1046A200F0E0ED93FC93E12F18810C94F628E09151
:1046B200C800E078E1F3E091CE000895E091C800EF
:1046C200E072E1F3E881E093CE000C9491281A9312
:1046D2000A93AA81BB8112960E943F2C309759F10E
:1046E200AA81BB8114960E943F2C8F01309761F002
:1046F2000230E0E01E07F0F0F80131978F01AA8145
:10470200BB811496ED93FC93AA81BB811296ED9125
:10471200FD913196FE93EE933197AC81A083AA81ED
:10472200BB810E943F2CFF232AF0ED91FD9131962F
:10473200FE93EE9306C0AA81BB81EFEFFFEFED93EC
:10474200FC9319810881259608952497E0E0E88377
:10475200E983E0E8EA83EFE3EB830E94B62CEE857F
:10476200FF85EF3FAFEFFA0759F4E885F985FA9331
:10477200EA93EAE4F3E0FA93EA930E945B2949C1DF
:10478200EF3FAFE7FA0759F4E885F985FA93EA9320
:10479200EBE4F3E0FA93EA930E945B293AC1AB851A
:1047A200A73010F0E6E0EB871B85E12F1150E030D7
:1047B20079F0AC81BD818E819F81E0E0F0E060E222
:1047C20071E40E94922AEC83FD836E837F83EDCF96
:1047D200EC85FD856E857F850E94A02C81F430E0FA
:1047E200AC81BD818E819F81E0E0F0E060E271E406
:1047F2000E94922AEC83FD836E837F837EC03B8579
:10480200EC81FD816E817F81AC85BD858E859F8522
:104812000E94252B09F010F40C943524AC81BD8143
:104822008E819F81E0E0F0E060E271E40E94922AD2
:10483200EC83FD836E837F83EC81FD816E817F81BA
:10484200AC85BD858E859F850E94252B60F0EDECA1
:10485200FCEC6CEC7DE30E94922AEC87FD876E876C
:104862007F873F5FE9CF25C0EC81FD816E817F812B
:10487200AC85BD858E859F850E94252B60F4E0E086
:10488200F0E060E271E40E94922AEC87FD876E8775
:104892007F873150E9CFAC81BD818E819F81E0E07D
:1048A200F0E060E271E40E94922AEC83FD836E8361
:1048B2007F83EC85FD856E857F85A0E0B0E080E09A
:1048C2009FE30E94422AEC87FD876E877F87EC81F7
:1048D200FD816E817F81AC85BD858E859F850E941D
:1048E200252B58F0EDECFCEC6CEC7DE30E94922A57
:1048F200EC87FD876E877F873F5F10E0EB85E117CE
:1049020010F40C94D424AC81BD818E819F81EDEC96
:10491200FCEC6CEC7DE30E94922AA0E0B0E080E027
:104922009FE30E94422A0E946C2C0E944429EC833D
:10493200FD836E837F83AC85BD858E859F850E94B6
:10494200E02A0E94CF290E2FA885B9851196A88743
:10495200B9871197E02FE05DEC93E02FFF276627E0
:1049620077270E94082AAC81BD818E819F810E9497
:10497200922AAC85BD858E859F850E94762C0E94E9
:104982003B2AEC87FD876E877F87E12F1F5FE03030
:1049920009F0B4CFA885B9851196A887B987119770
:1049A200EEE2EC93ABCFE885F9853196E887F9879B
:1049B2003197AA85A08330302CF43195A885B9852A
:1049C200EDE203C0A885B985EBE2EC93E885F985B1
:1049D2003196E887F9873196E887F9873197BF01E1
:1049E200A32FEAE00E94E62BE05DDB01EC93E88571
:1049F200F9853196E887F9873197BF01A32FEAE05D
:104A02000E94232CE05DDB01EC93A885B985E0E0F0
:104A1200EC930E94BD2C60960895EF9761970E94D7
:104A2200B42C10E0FE01E85AFF4F0190F081E02D16
:104A3200E887F987FE01EA5AFF4F0190F081E02DE5
:104A4200EE83FF83AE81BF81E0E0F0E0ED93FC9363
:104A5200DE01A45ABF4FED91FD913196FE93EE9384
:104A62003197E4912E2FE03011F40C940C28E12FB1
:104A7200E03069F4253211F411E008C02A93EF8185
:104A8200F885FA93EA93EB85FC850995C3C2E13078
:104A9200F1F4253249F42A93EF81F885FA93EA93E7
:104AA200EB85FC850995B5C212E0E0E0ED8B00E0F4
:104AB2002D3211F401E0AEC22B3219F4EBE2ED8B90
:104AC200A9C2203219F4E0E2ED8BA4C202C0E230A6
:104AD20039F450E013E0203311F400689BC202C0A5
:104AE200E33091F4203310F02A3308F007C0AAE033
:104AF2005A9F502DE22FE0535E0F8CC240E02E32BF
:104B020011F414E087C20FC0E43099F4203310F09E
:104B12002A3308F008C00062AAE04A9F402DE22F23
:104B2200E0534E0F77C22C3619F4026015E072C2C0
:104B320004C0E53011F00C940B28E22FE336B1F4F7
:104B4200FE01E65AFF4F0190F081E02D3497DE011D
:104B5200A65ABF4FED93FC93A481AA93EF81F885E7
:104B6200FA93EA93EB85FC85099553C2E53411F07B
:104B7200E53609F404C0E63611F00C942C26FE0149
:104B82007696EE87FF87DE01A65ABF4F0D90BC9145
:104B9200A02D0E94432CEA87FB876C877D87FE014C
:104BA200E65AFF4F0190F081E02D3497DE01A65ABC
:104BB200BF4FED93FC93AD85AA2322F0AD89AB32B2
:104BC20069F020C0EA85FB856C857D850E949C2961
:104BD200EA87FB876C877D87EDE2ED8B07FF0AC0D2
:104BE200ED89EA93EF81F885FA93EA93EB85FC85E8
:104BF200099508C0EE85FF853196EE87FF873197CC
:104C0200AD89A08305FF46E0263671F4EA85FB856F
:104C12006C857D850E946C2C4A93EB89FC89FA9302
:104C2200EA930E941B0A0DC0EA85FB856C857D858F
:104C32000E946C2C4A932A93EC89FD89FA93EA9399
:104C420084DDFE017696EE87FF87FA93EA930E944F
:104C520066291E2F45C0E337E9F4FE01E65AFF4FED
:104C62000190F081E02D3497DE01A65ABF4FED93FB
:104C7200FC93DE01A65ABF4F0D90BC91A02D149655
:104C82000E943F2CEE87FF87FA93EA930E946629DF
:104C92001E2F1FC0E03749F5FE01E65AFF4F019073
:104CA200F081E02D3497DE01A65ABF4FED93FC93BD
:104CB200DE01A65ABF4F0D90BC91A02D14960E9402
:104CC2003F2CEE87FF87FA93EA930E9470291E2FEA
:104CD20008600F77403011F0411708F001C0142F1F
:104CE20040E0E0E0EC8B30E0AAC0E43611F0E936B7
:104CF20011F4046002C0E537C1F4EAE0EC8B01FF75
:104D02000AC0E0E0FAEC6AE97BE3E88BF98B6A8B94
:104D12007B8B1AE029C0E0E1F7E260E070E0E88B0B
:104D2200F98B6A8B7B8B15E01FC0E83511F40860A4
:104D320004C0E83711F00C940A28E0E1EC8B01FF83
:104D42000AC0E0E0F0E060E070E1E88BF98B6A8B8A
:104D52007B8B18E009C0E0E0F0E160E070E0E88BF6
:104D6200F98B6A8B7B8B14E0403011F00F7701C016
:104D720041E001FF16C0FE01E65AFF4F0190F081AB
:104D8200E02D3497DE01A65ABF4FED93FC93DE016E
:104D9200A65ABF4F0D90BC91A02D14960E94432C91
:104DA20031C002FF18C0FE01E65AFF4F0190F081A8
:104DB200E02D3497DE01A65ABF4FED93FC93DE013E
:104DC200A65ABF4F0D90BC91A02D14960E943F2C65
:104DD2000E94AD2B17C0FE01E65AFF4F0190F081F1
:104DE200E02D3497DE01A65ABF4FED93FC93DE010E
:104DF200A65ABF4F0D90BC91A02D14960E943F2C35
:104E020066277727EA87FB876C877D8702FF16C0B4
:104E1200AD85AA2362F4EA85FB856C857D850E94B7
:104E22005D2BEA87FB876C877D87EDE2ED8BED8951
:104E3200E03019F01F5F4F5F01C00B7F342F00FD80
:104E42001AC0151710F4351708F015C007FF08C06F
:104E520002FF04C00B7F2D89115001C020E301C065
:104E620020E22A93EF81F885FA93EA93EB85FC8599
:104E720009955150E6CF141740F5006102FF17C0A3
:104E82000B7FED89EA93FE01E95AFF4F0190F08111
:104E9200E02DFA93EA93FE01E55AFF4F0190F0816B
:104EA200E02D0995503009F0515011504150E0E386
:104EB200EA93EF81F885FA93EA93EB85FC850995ED
:104EC200503009F051504150D6CF312FEC89E030AB
:104ED200E9F43030D1F003FF06C0EE85FF8525915D
:104EE200EE87FF8705C0AE85BF852D91AE87BF8750
:104EF2002A93EF81F885FA93EA93EB85FC8509956D
:104F0200503009F051503150E4CF74C0E889F9892A
:104F12006A897B89AA85BB858C859D850E94FE2B2B
:104F22002E2F2A3030F003FF02C0295C01C0295A1B
:104F320001C0205D04FD32C0213360F4A889B98923
:104F42008A899B89A130E0E0BE07E0E08E07E0E0BD
:104F52009E0709F40BC0431740F4531710F000FFEB
:104F620001C027C020E207FF19C020E3006102FF51
:104F720015C00B7FED89EA93FE01E95AFF4F0190BC
:104F8200F081E02DFA93EA93FE01E55AFF4F01907A
:104F9200F081E02D0995503009F051502A93EF81AC
:104FA200F885FA93EA93EB85FC850995503009F070
:104FB20051503150E889F9896A897B89AA85BB8574
:104FC2008C859D850E942F2CEA87FB876C877D87C5
:104FD200EC89A889B9898A899B89FF27662777275F
:104FE2000E94FE2BE88BF98B6A8B7B8B0E94A02C94
:104FF20009F08CCF00FF0DC0503059F05150E0E263
:10500200EA93EF81F885FA93EA93EB85FC8509959B
:10501200F3CF10E01DCDAE81BF810E943F2C0E94D4
:10502200BB2CEF966F960895FF92F82E26970E945A
:10503200B62CDE011C960E94452B0E943F2C309715
:1050420019F4EFEFFFEF29C0DE0116960E94452BFF
:105052008D01DE011C960E94452B0E943F2CEE839F
:10506200FF83E0E0E887E987DE011A960E94452B7C
:105072000E943F2CFA93EA931A930A93E8E6F3E22A
:10508200FA93EA93FE013A96FA93EA93C6DC9F01F9
:10509200AE81BF81E0E0EC93F9010E94BD2C2A961B
:1050A200FF900895429883E08A95F1F70895399A1E
:1050B200389A3A9A429A83E08A95F1F7E881EA931C
:1050C20002D00C949128E991A8E0E795409808F461
:1050D200409A0000000000000000419A81E08A9599
:1050E200F1F7419881E08A95F1F7AA9571F7089551
:1050F200E881E160EA930E94582840983898A8E035
:10510200889430990894E795419A81E08A95F1F75D
:10511200419881E08A95F1F7AA9591F70E94532868
:1051220021960895E981EE7FEA930E945828E8814A
:10513200EA930E9464280E94532822960895E881E7
:10514200E370E883EA81E03019F0E881E06AE883FD
:10515200A981A13019F4E881E46007C0A981A230D5
:1051620019F4E881E86001C0E0E0E883EEE8EA9340
:10517200E0E0EA93D7DFE0E9EA93E9812FC0E5E8CE
:10518200EA93B6DFEA930E947B29AC81BD81EC935E
:10519200E3E8EA93ADDFEA930E947B29AA81BB810F
:1051A200EC93E1E837C0EEE8EA93E0E0EA93BADF95
:1051B200E4E8EA93EB81EA930E948729EA93B2DF5B
:1051C200E2E8EA93EA81EA930E948729EA93AADF56
:1051D200E0E8EA93E981EA930E948729EA93A2DF51
:1051E200EEE8EA93E0E8EA939DDF23960895E7E884
:1051F200EA937EDFEA930E947B29AC81BD81EC9326
:10520200E9E8EA9375DFEA930E947B29AA81BB81D0
:10521200EC93EDE8EA936CDFEA930E947B29A88184
:10522200B981EC93269608957B816A81F981E881A0
:1052320077FB770F67FD7160972F9E5781F078F0AB
:10524200983190F4AA27BB27882708948795B795A9
:10525200A7959A95D1F7EA23FB23682305C0E89422
:105262007727EE27FF2766276F77769508F4606821
:1052720077F9A991B99189919991EA17FB07680782
:10528200790797FB08950E94582C0E946C2C0E946B
:1052920015290E94622C19F40E94582C09C0E6F7C5
:1052A2000E94582CA0E0B0E080E89FE30E943B2AD5
:1052B20024960895E991F991A991B991CD010590AA
:1052C2000D920020E1F7FC010895A991B991EE2712
:1052D200FF276D91662311F03196FBCF0895AA271F
:1052E200BB27E991F9910590002011F01196FBCFAF
:1052F200FD010895E881E295EF70AE2FAA0FAA0F83
:10530200EA0FEE0FA991AF70EA0F0895A991EE2767
:10531200AA5012F0E05FFCCFA65FEA0F0895E99170
:10532200F991309639F084EF91E00197F1F7A89561
:105332003197C9F7089530976040704009F070586E
:105342000895552342F4503811F4E0FF04C0319619
:10535200691F791F6BF050E8572711F45F93CFC094
:105362005F3F31F0660F000C57956795752F0895D2
:105372005F9300200AF0CFC0C8C050E8192E152252
:10538200880F991F9527550F879550E8072E0522FC
:10539200660F771F7527550F67950895689401C0AA
:1053A200E8945F93F2DF703818F07F3F08F4A7C0EB
:1053B20056E1571BAAF4519558300EF4593030F08B
:1053C200EFEFFFEF6FEF7FE777F91AC077275523EB
:1053D200B9F0EE0FFF1F661F771F5A95D1F710C065
:1053E2007727583028F0EF2FF62F672F5850F9CF34
:1053F200552331F076956795F795E7955A95D1F74C
:1054020000200AF459D15F910895689401C0E8948C
:10541200309760407040B1F0002426F0772312F4F8
:1054220000944AD1172E7EE1112032F07A95EE0FC8
:10543200FF1F661F111CF9CFEF2FF62F612D5F930F
:105442008ADF5F9108954F93AF01FD01DA01AB014D
:10545200BC01CA01402D012C142E4F910895EA0F70
:10546200FB1F681F0895E095F0956095EF5FFF4F71
:105472006F4F08955F9381DF903871F150E81526E0
:1054820004C05F937ADF903839F1703821F1572FD9
:10549200591B2BF112F4D7DFFACF583118F0AA2793
:1054A200BB278827583028F0AB2FB82F88275850B1
:1054B200F9CF552329F08695B795A7955A95D9F72F
:1054C200502D512572F0CBDF38F46795F795E795AB
:1054D200739513F420C0B7DF3EDF5F910895D8F7CC
:1054E200FBCFEA1BFB0B680B51F010F40094BBDFFF
:1054F200662392F3EE0FFF1F661F7A95CBF7EE2716
:10550200FF27662777275F910895EFEFFFEF6FE799
:105512007FEF5F910895EFEFFFEF6FE77FE75F9116
:1055220008955F932ADF703851F3903841F30124D4
:105532000894791F23F41CF300203AF3ECCF0F9266
:105542001F932F933F934F93112722279927689FE9
:10555200A0018F9F302D410D591F6B9F300D411DB2
:10556200591F8E9F27D0BF9F25D06A9F23D0BE9FF1
:105572001DD0AF9F1BD0AE9F110D291F391F491F90
:10558200591FE32FF42F652F522F4F913F912F91E7
:105592001F910F9066232AF0550FEE1FFF1F661F03
:1055A20002C073954BF2CDDE5F910895100D211D5F
:1055B200391F02C0200D311D491F591F08955F93E5
:1055C200DCDE703821F411200AF49FCFA4CF90388A
:1055D20009F495CF01240894970B1BF4D4F300200F
:1055E200F3CF792F1F932F933F934F9311241127BA
:1055F200222733274427552790E2AE17BF07860795
:10560200410730F0AE1BBF0B860B410B089401C063
:105612008894551F221F331F111CAA1FBB1F881FEE
:10562200441F9A9551F7F901612D4F913F912F91A6
:105632001F91662332F0550FEE1FFF1F661F7A95EA
:1056420043F27FDE5F91089599239AF0772342F027
:10565200971748F029F4AE17BF07860720F031F0FC
:105662009894889408959894089408951894889426
:1056720008957723C2F7971798F3A9F7EA17FB075C
:10568200680788F399F3ECCF0024AF0DB01D08959D
:10569200EA0FFB1F681F791F0895EA1BFB0B680BBB
:1056A200790B0895AE1BBF0B860B970B0895EA2B5F
:1056B200FB2B682B792B0895F09560957095E195F9
:1056C200FF4F6F4F7F4F0895EE230E2EFD01BC0159
:1056D20031F0EE0FFF1F661F771F0A94D1F708956E
:1056E200EE230E2EFD01BC0131F076956795F795FC
:1056F200E7950A94D1F70895EE0FFF1FEE0FFF1FF3
:10570200EE0FFF1FEE0FFF1F0895F595E795F59534
:10571200E795F595E795F595E7950895F695E7955B
:10572200F695E795F695E795F695E7950895EE0FC8
:10573200FF1F661F771F0895E62FF72F60E070E0C6
:1057420008956E2F7F2FE0E0F0E00895FE2FFF0F07
:10575200FF0B6F2F7F2F08956F2F660F660B762F2B
:1057620008957A9F702D6B9F700DF89F700DE99FC1
:10577200700D6A9F602D710DFB9F600D711DE89F7A
:10578200600D711D8827FA9FF02D610D781FEB9F28
:10579200F00D611D781FEA9FE02DF10D681F781F43
:1057A20008956E2F6A9FF0016B9FF00D08950024FB
:1057B20098E0AA0F001C0E1A10F40E0E01C0A16090
:1057C2009A95B9F7EA2FA02D08954CD0F0DF0EF488
:1057D200E19508950024112490E1AA0FBB1F001C3B
:1057E200111C0E1A1F0A18F40E0E1F1E01C0A16012
:1057F2009A9599F7FD01D00108953F934F935F93D6
:10580200002411244427552730E2AA0FBB1F881F0A
:10581200991F001C111C441F551F0E1A1F0A460B0C
:10582200570B28F40E0E1F1E461F571F01C0A16002
:105832003A9559F7FD01BC01D001CA015F914F9120
:105842003F910895E894A7FF02C0A1956894E7FDEF
:10585200E195ADDFEA2F0EF4E1950895CEDFFD016B
:10586200BC010895E894E7FF02C0E1956894A7FFA0
:1058720004C0A19500F8039400FA0895ED91FC91FB
:1058820011970895ED91FD916D917C911397089573
:10589200ED91FD916D917D910895ED93FD936D9341
:1058A2007C9308957E936E93FE93EE930895E88120
:1058B200F9816A817B810895A881B9818A819B815E
:1058C2000895E883F9836A837B830895A083B18373
:1058D2008283938308957A936A93FA93EA9308955D
:1058E2009A938A93BA93AA930895182E862F612DBC
:1058F200192E972F712D1B2EBF2FF12D1A2EAE2F81
:10590200E12D0895F999FECFFF93FFB7F894A1BD59
:10591200B2BDF89AE0B5FFBFFF910895F99B02C0AE
:10592200A895FCCF9FB7F894A1BDB2BDF89A80B5F7
:10593200E81719F0E0BDFA9AF99A9FBF08953097D7
:1059420060407040089500240A160B0608060906F6
:105952000895EA17FB07680779070895AE17BF078E
:105962008607970708955A934A933A932A931A936C
:105972000A9308955D814C813B812A8119810881B6
:105982000895AC0FBD1F05900D928A95E1F7089519
:00000001FF
